{
  "contractName": "OppStore",
  "abi": [
    {
      "constant": true,
      "inputs": [
        {
          "name": "",
          "type": "address"
        }
      ],
      "name": "oppStoresMap",
      "outputs": [
        {
          "name": "owner",
          "type": "address"
        },
        {
          "name": "productCount",
          "type": "uint256"
        },
        {
          "name": "purchaseCount",
          "type": "uint256"
        },
        {
          "name": "hash",
          "type": "string"
        }
      ],
      "payable": false,
      "stateMutability": "view",
      "type": "function"
    },
    {
      "constant": true,
      "inputs": [
        {
          "name": "",
          "type": "address"
        }
      ],
      "name": "hasStore",
      "outputs": [
        {
          "name": "",
          "type": "bool"
        }
      ],
      "payable": false,
      "stateMutability": "view",
      "type": "function"
    },
    {
      "constant": true,
      "inputs": [],
      "name": "storeCount",
      "outputs": [
        {
          "name": "",
          "type": "uint256"
        }
      ],
      "payable": false,
      "stateMutability": "view",
      "type": "function"
    },
    {
      "constant": true,
      "inputs": [],
      "name": "totalSalesValue",
      "outputs": [
        {
          "name": "",
          "type": "uint256"
        }
      ],
      "payable": false,
      "stateMutability": "view",
      "type": "function"
    },
    {
      "constant": true,
      "inputs": [],
      "name": "oppPurchases",
      "outputs": [
        {
          "name": "",
          "type": "uint256"
        }
      ],
      "payable": false,
      "stateMutability": "view",
      "type": "function"
    },
    {
      "constant": false,
      "inputs": [
        {
          "name": "storeHash",
          "type": "string"
        }
      ],
      "name": "openStore",
      "outputs": [],
      "payable": true,
      "stateMutability": "payable",
      "type": "function"
    },
    {
      "constant": false,
      "inputs": [
        {
          "name": "price",
          "type": "uint256"
        },
        {
          "name": "stock",
          "type": "uint256"
        },
        {
          "name": "hash",
          "type": "string"
        }
      ],
      "name": "createProduct",
      "outputs": [],
      "payable": false,
      "stateMutability": "nonpayable",
      "type": "function"
    },
    {
      "constant": false,
      "inputs": [
        {
          "name": "storeOwner",
          "type": "address"
        },
        {
          "name": "productId",
          "type": "uint256"
        },
        {
          "name": "purchaseHash",
          "type": "string"
        }
      ],
      "name": "purchaseProduct",
      "outputs": [],
      "payable": true,
      "stateMutability": "payable",
      "type": "function"
    }
  ],
  "bytecode": "0x608060405260006001556000600255600060035534801561001f57600080fd5b50610c468061002f6000396000f30060806040526004361061008e576000357c0100000000000000000000000000000000000000000000000000000000900463ffffffff16806335e2dd6314610093578063397ef99314610119578063850a1003146102165780638d1559fe14610293578063a1b141d4146102ee578063afd04bb314610319578063b7b0da2e14610375578063b7efa693146103a0575b600080fd5b610117600480360381019080803573ffffffffffffffffffffffffffffffffffffffff16906020019092919080359060200190929190803590602001908201803590602001908080601f01602080910402602001604051908101604052809392919081815260200183838082843782019150505050505091929192905050506103cb565b005b34801561012557600080fd5b5061015a600480360381019080803573ffffffffffffffffffffffffffffffffffffffff169060200190929190505050610635565b604051808573ffffffffffffffffffffffffffffffffffffffff1673ffffffffffffffffffffffffffffffffffffffff16815260200184815260200183815260200180602001828103825283818151815260200191508051906020019080838360005b838110156101d85780820151818401526020810190506101bd565b50505050905090810190601f1680156102055780820380516001836020036101000a031916815260200191505b509550505050505060405180910390f35b34801561022257600080fd5b506102916004803603810190808035906020019092919080359060200190929190803590602001908201803590602001908080601f016020809104026020016040519081016040528093929190818152602001838380828437820191505050505050919291929050505061071d565b005b34801561029f57600080fd5b506102d4600480360381019080803573ffffffffffffffffffffffffffffffffffffffff1690602001909291905050506108a5565b604051808215151515815260200191505060405180910390f35b3480156102fa57600080fd5b506103036108c5565b6040518082815260200191505060405180910390f35b610373600480360381019080803590602001908201803590602001908080601f01602080910402602001604051908101604052809392919081815260200183838082843782019150505050505091929192905050506108cb565b005b34801561038157600080fd5b5061038a610aab565b6040518082815260200191505060405180910390f35b3480156103ac57600080fd5b506103b5610ab1565b6040518082815260200191505060405180910390f35b60006103d5610ab7565b6000808673ffffffffffffffffffffffffffffffffffffffff1673ffffffffffffffffffffffffffffffffffffffff1681526020019081526020016000206001016000858152602001908152602001600020600101543411151561043857600080fd5b6000808673ffffffffffffffffffffffffffffffffffffffff1673ffffffffffffffffffffffffffffffffffffffff168152602001908152602001600020600401600081548092919060010191905055915043816000018181525050348160200181815250508381604001818152505082816060018190525084816080019073ffffffffffffffffffffffffffffffffffffffff16908173ffffffffffffffffffffffffffffffffffffffff168152505060008160a0019015159081151581525050806000808773ffffffffffffffffffffffffffffffffffffffff1673ffffffffffffffffffffffffffffffffffffffff16815260200190815260200160002060030160008481526020019081526020016000206000820151816000015560208201518160010155604082015181600201556060820151816003019080519060200190610587929190610b06565b5060808201518160040160006101000a81548173ffffffffffffffffffffffffffffffffffffffff021916908373ffffffffffffffffffffffffffffffffffffffff16021790555060a08201518160040160146101000a81548160ff02191690831515021790555090505060026000815480929190600101919050555034600354016003819055508473ffffffffffffffffffffffffffffffffffffffff1634614f5d905050505050505050565b60006020528060005260406000206000915090508060000160009054906101000a900473ffffffffffffffffffffffffffffffffffffffff1690806002015490806004015490806005018054600181600116156101000203166002900480601f0160208091040260200160405190810160405280929190818152602001828054600181600116156101000203166002900480156107135780601f106106e857610100808354040283529160200191610713565b820191906000526020600020905b8154815290600101906020018083116106f657829003601f168201915b5050505050905084565b610725610b86565b6000600460003373ffffffffffffffffffffffffffffffffffffffff1673ffffffffffffffffffffffffffffffffffffffff16815260200190815260200160002060009054906101000a900460ff16151561077f57600080fd5b6000803373ffffffffffffffffffffffffffffffffffffffff1673ffffffffffffffffffffffffffffffffffffffff16815260200190815260200160002060020160008154809291906001019190505590508082600001818152505084826020018181525050838260400181815250506000826060018181525050828260800181905250816000803373ffffffffffffffffffffffffffffffffffffffff1673ffffffffffffffffffffffffffffffffffffffff168152602001908152602001600020600101600083815260200190815260200160002060008201518160000155602082015181600101556040820151816002015560608201518160040155608082015181600501908051906020019061089a929190610b06565b509050505050505050565b60046020528060005260406000206000915054906101000a900460ff1681565b60015481565b6108d3610bb6565b600460003373ffffffffffffffffffffffffffffffffffffffff1673ffffffffffffffffffffffffffffffffffffffff16815260200190815260200160002060009054906101000a900460ff1615151561092c57600080fd5b33816000019073ffffffffffffffffffffffffffffffffffffffff16908173ffffffffffffffffffffffffffffffffffffffff168152505060008160200181815250506000816040018181525050818160600181905250806000803373ffffffffffffffffffffffffffffffffffffffff1673ffffffffffffffffffffffffffffffffffffffff16815260200190815260200160002060008201518160000160006101000a81548173ffffffffffffffffffffffffffffffffffffffff021916908373ffffffffffffffffffffffffffffffffffffffff16021790555060208201518160020155604082015181600401556060820151816005019080519060200190610a39929190610b06565b509050506001600460003373ffffffffffffffffffffffffffffffffffffffff1673ffffffffffffffffffffffffffffffffffffffff16815260200190815260200160002060006101000a81548160ff0219169083151502179055506001600081548092919060010191905055505050565b60035481565b60025481565b60c06040519081016040528060008152602001600081526020016000815260200160608152602001600073ffffffffffffffffffffffffffffffffffffffff1681526020016000151581525090565b828054600181600116156101000203166002900490600052602060002090601f016020900481019282601f10610b4757805160ff1916838001178555610b75565b82800160010185558215610b75579182015b82811115610b74578251825591602001919060010190610b59565b5b509050610b829190610bf5565b5090565b60a06040519081016040528060008152602001600081526020016000815260200160008152602001606081525090565b608060405190810160405280600073ffffffffffffffffffffffffffffffffffffffff1681526020016000815260200160008152602001606081525090565b610c1791905b80821115610c13576000816000905550600101610bfb565b5090565b905600a165627a7a723058206b2d63b99b8d62f6cf037cf74c3dc1fd5b3d039537f615a83442b1e4de253cbb0029",
  "source": "pragma solidity ^0.4.20;\n\ncontract OppStore {\n\n    //This is the list of stores.\n    //Store[] public oppStores;\n    mapping(address => Store) public oppStoresMap;\n    uint public storeCount = 0;\n    uint public oppPurchases = 0;\n    uint public totalSalesValue = 0;\n\n    mapping(address => bool) public hasStore;\n    //In the future there should be a manager who gets 1% of sales.\n\n    struct Store {\n        address owner;\n        mapping(uint => Product) products;\n        uint productCount;\n        mapping(uint => Purchase) purchases;\n        uint purchaseCount;\n        string hash;\n    }\n\n    struct Purchase {\n        uint date;\n        uint amount;\n        uint productId;\n        string hash;\n        address storeOwner;\n        bool fufilled;\n    }\n\n    struct Product {\n        uint id;\n        uint price; //in wei\n        uint stock;\n        mapping(address => Purchase) purchased;\n        uint purchaseCount;\n        string hash;\n    }\n\n\n\n    function openStore(string storeHash) public payable{\n        require(!hasStore[msg.sender]);\n        Store memory store;\n\n        store.owner = msg.sender;\n        store.productCount = 0;\n        store.purchaseCount = 0;\n        store.hash = storeHash;\n\n        //oppStores.push(store);\n        oppStoresMap[msg.sender] = store;\n        hasStore[msg.sender] = true;\n\n        storeCount++;\n    }\n\n    function createProduct(uint price, uint stock, string hash) public {\n        require(hasStore[msg.sender]);\n\n        Product memory product;\n\n        uint id = oppStoresMap[msg.sender].productCount++;\n\n        product.id = id;\n        product.price = price;\n        product.stock = stock;\n        product.purchaseCount = 0;\n        product.hash = hash;\n\n        oppStoresMap[msg.sender].products[id] = product;\n\n    }\n\n    function purchaseProduct(address storeOwner, uint productId, string purchaseHash) public payable {\n\n        //check the amount paid is greater than price, extra is considered tip or shipping\n        require(msg.value > oppStoresMap[storeOwner].products[productId].price);\n\n        uint currentStorePurchaseCount = oppStoresMap[storeOwner].purchaseCount++;\n\n        Purchase memory purchase;\n\n        purchase.date = block.number;\n        purchase.amount = msg.value;\n        purchase.productId = productId;\n        purchase.hash = purchaseHash;\n        purchase.storeOwner = storeOwner;\n        purchase.fufilled = false;\n\n\n        oppStoresMap[storeOwner].purchases[currentStorePurchaseCount] = purchase;\n        oppPurchases++;\n        totalSalesValue = totalSalesValue + msg.value;\n\n        //should decrement the stock\n\n        //last thing send the money to the storeowner\n        storeOwner.call.value(msg.value).gas(20317);\n    }\n\n    // restockProduct()\n\n    //fufill order\n\n\n\n}\n",
  "sourcePath": "/Users/dennison/FullStack_School/IPFS-Redux/truffle-redux/contracts/contracts/OppStore.sol",
  "compiler": {
    "name": "solc",
    "version": "0.4.24+commit.e67f0147.Emscripten.clang"
  },
  "schemaVersion": "2.0.1",
  "updatedAt": "2018-09-24T02:05:20.805Z"
}